S014000041726561547269616E67756C6F2E6F626A54
S123C0004FC718024504B0943FCA3FCB3FCC3FB83FB93FBA3FBB3FBC3FB03FB13FB23FB3A2
S123C0203FB43FB53FB23FB3450000D6C40887A40FE7C386A4F04444444489AE0A4288EB47
S123C040C3E7C35C510403CCC02BB6C3BBC5B7CBB6C6BBCBB7CB4FB9CAB7CA4EC4CC34CCD4
S123C06034CB2406A632BBCCB7CC01CA021ECBB6CBB0C5B7C5B6CBB0C6B7C74ECCC64ECC1A
S123C080C8B6CBB0C3B7C35FB6CCB0C4B7C4920CBEC35ABFC3A664BBC4B7C45FB6CBBEC336
S123C0A042BFB8B7B9B6CBBEC442898AAE6452B7BA8B86B7BBB6CCBEC342898AAE6452B730
S123C0C0BC8B86B7BDB6CCBEC442898AAE64528C528B86B7BEB6B9BBBAB7B94FB9B8B7B877
S123C0E0B6B9BBBCB7B94FB9B8B7B8B6BBBBBD87A0642B0E885F87B6B9AB01B7B94FB9B851
S123C100B7B886B7BABBBE87A0642B0E885F87B6B9AB01B7B94FB9B8B7B886B7BA4EB8CA89
S123C1204EB9CB4EBACCB6C7BEC542BFB8B7B9B6C5BEC842898AAE6452B7BA8B86B7BBB6C8
S123C140C6BEC742898AAE6452B7BC8B86B7BDB6C6BEC842898AAE64528C528B86B7BEB60A
S123C160B9BBBAB7B94FB9B8B7B8B6B9BBBCB7B94FB9B8B7B8B6BBBBBD87A0642B0E885FD5
S123C18087B6B9AB01B7B94FB9B8B7B886B7BABBBE87A0642B0E885F87B6B9AB01B7B94FDE
S123C1A0B9B8B7B886B7BA4ECAB04ECBB14EB8B44EB9B5CDC2994EB0C34EB1C44EB2C54EDD
S123C1C0B3C64ECAB04ECBB16E00B44EBAB5CDC2996E00B46E64B5CDC2F84EB5C74EB0BB96
S123C1E04EB1BC4EB2BD4EB3BE4EB8B04EB9B16E00B44ECCB5CDC2996E00B46E64B5CDC245
S123C200F84EB5C84EB0BF4EB1C04EB2C14EB3C2B6CCBEBA42898AAE64528C528B86B7C935
S123C220B6C6BBBEB7C6B6C5B9BDB7C5B6C4B9BCB7C4B6C3B9BBB7C3B6C6BBC2B7C6B6C559
S123C240B9C1B7C5B6C4B9C0B7C4B6C3B9BFB7C3B6C7BBC887A0642B18885F87B6C6AB01A7
S123C260B7C64FB9C5B7C54FB9C4B7C44FB9C3B7C386B7C7BBC987A0642B18885F87B6C628
S123C280AB01B7C64FB9C5B7C54FB9C4B7C44FB9C3B7C386B7C7CCC29687898BA7FA9E6F2B
S123C2A006BEB1B6B5429EEF06B7B3BEB0B6B5429EEB069EE70224015C9EEF019E6F06BE4A
S123C2C0B1B6B4429EEF069EE705BEB0B6B4429EEB069EE70424015C9EEF039EE6029EEB8E
S123C2E005B7B29EE6019EE904B7B19EE603A900B7B0A7068A8886818B8789A7FDA6209E54
S123C300E703B6B49EE701B6B59EE7024EB3B54EB2B44EB1B34EB0B23FB03FB1B6B04939BA
S123C320B539B439B339B239B139B0B6B19EE002B7B1B6B09EE201B7B0B6B5A200B7B50196
S123C340B516B6B19EEB02B7B1B6B09EE901B7B0B6B5A900B7B5200210B59E6B03BEB6B0C8
S123C3609EE701B6B19EE7024EB2B04EB3B14EB4B24EB5B39EE601B7B49EE602B7B5A703ED
S123C38088868A818B8789A7FF8C4F9E6F01BEB05824034C878AD6C3FEB7B4D6C3FFB7B506
S123C3A0D6C400B7B6D6C401B7B7B0B5B7B3B6B6B2B4B7B24D900F9E6C0130B3240630B279
S123C3C03AB2200230B2B6B1BEB342BFB3B6B1BEB242BBB3B7B39FA900B7B29E6D01930E8E
S123C3E0B6B5B0B3B7B3B6B4B2B2B7B2200CB6B3BBB5B7B3B6B4B9B2B7B2A70188868A815C
S10FC40000010000000000001080231662
S105FFFEC0003D
S9030000FC
